:1000000045C0000060C000005EC000005CC0000091
:100010005AC0000058C0000056C0000054C0000084
:1000200052C0000050C000004EC000004CC0000094
:100030004AC0000048C0000046C0000044C00000A4
:1000400042C0000040C000003EC000003CC00000B4
:100050003AC0000038C0000036C0000034C00000C4
:1000600032C0000030C000002EC000002CC00000D4
:100070002AC0000028C00000ACC0000024C000005E
:1000800022C0000020C000001EC0000011241FBEBE
:10009000CFEFD0E1DEBFCDBF11E0A0E0B1E0E2E301
:1000A000F2E000E00BBF02C007900D92A030B10754
:1000B000D9F721E0A0E0B1E001C01D92A130B20764
:1000C000E1F784D0B4C09CCF65D08B9A8A9808950C
:1000D00075C00895C598C698282F207F95B39F7046
:1000E000922B95BBC79AC7988295807F95B39F70D6
:1000F000892B85BBC79AC7988AE68A95F1F700C015
:10010000089587B3806E87BB88B38F7188BB84B333
:10011000806F84BB85B38F7085BB8FE39CE90197AB
:10012000F1F700C0000088E2D5DF8CE0D3DF86E085
:10013000D1DF81E0CFDF8FE097E20197F1F700C0D8
:1001400000000895813021F48FE7860FC3CF089512
:100150008FEB860FBFCF0895C59AC698282F207FB2
:1001600095B39F70922B95BBC79AC7988295807F55
:1001700095B39F70892B85BBC79AC7988AE68A95E5
:10018000F1F700C00895CF93C42FDCDF8C2FE4DF9C
:10019000CF910895F89410929B00EAE9F0E08081F5
:1001A00088698083EDE9F0E0808186608083109229
:1001B000980083E38093990078940895EBE9F0E048
:1001C00080818823ECF780919C0008959ADF7CDF82
:1001D000FFCF1F920F920FB60F9211240BB60F9202
:1001E0002F933F934F935F936F937F938F939F933F
:1001F000AF93BF93EF93FF936BDF80930001409128
:10020000000168E081E0BFDFFF91EF91BF91AF9106
:100210009F918F917F916F915F914F913F912F911E
:100220000F900BBE0F900FBE0F901F901895F89473
:02023000FFCFFE
:00000001FF
